:100000000C9462000C948A000C948A000C948A0070
:100010000C948A000C948A000C948A000C948A0038
:100020000C948A000C948A000C948A000C948A0028
:100030000C948A000C948A000C948A000C948A0018
:100040000C9422030C948A000C942D020C945F02F1
:100050000C948A000C948A000C948A000C948A00F8
:100060000C948A000C948A00000000080002010031
:100070000003040700000000000000000102040863
:100080001020408001020408102001020408102002
:10009000040404040404040402020202020203032E
:1000A00003030303000000002300260029000000D2
:1000B0000000250028002B0000000000240027007D
:1000C0002A008F0211241FBECFEFD8E0DEBFCDBFC4
:1000D00011E0A0E0B1E0E2EEF9E002C005900D927F
:1000E000A434B107D9F721E0A4E4B1E001C01D9226
:1000F000AA3EB207E1F710E0C2E6D0E004C02197C3
:10010000FE010E94E904C136D107C9F70E94BD0271
:100110000C94EF040C940000CF93DF9300D000D038
:1001200000D0CDB7DEB79A8389834B835C836D8320
:100130007E838B819C81AD81BE81E981FA8126E03D
:10014000AC01BD01CF010E94C80126960FB6F894FC
:10015000DEBF0FBECDBFDF91CF910895CF93DF9368
:10016000CDB7DEB7809100019091010161E00E945E
:100170003104809102019091030160E00E943104FA
:1001800040E855E260E070E084E491E00E948C0079
:10019000DF91CF910895CF93DF9300D0CDB7DEB735
:1001A00080910201909103010E949D049A838983AA
:1001B00089819A81019771F48091000190910101E8
:1001C00061E00E946D0464E071E084E491E00E94CB
:1001D00010030DC0809100019091010160E00E9428
:1001E0006D0465E171E084E491E00E94100364E62F
:1001F00070E080E090E00E9491030F900F90DF91FB
:10020000CF910895FC01918D228D892F90E0805C23
:100210009F4F821B91098F7399270895FC01918D3F
:10022000828D981731F0828DE80FF11D858D90E059
:1002300008958FEF9FEF0895FC01918D828D98179F
:1002400061F0828DDF01A80FB11D5D968C91928DBA
:100250009F5F9F73928F90E008958FEF9FEF0895B7
:1002600085E892E0892B49F080E090E0892B29F025
:100270000E94850281110C9400000895FC01848D78
:10028000DF01A80FB11DA35ABF4F2C91848D90E0C0
:1002900001968F739927848FA689B7892C93A0899B
:1002A000B1898C9180648C93938D848D981306C052
:1002B0000288F389E02D80818F7D80830895CF931C
:1002C000DF93EC01888D8823C9F0EA89FB8980815E
:1002D00085FD05C0A889B9898C9186FD0FC00FB630
:1002E00007FCF5CF808185FFF2CFA889B9898C9171
:1002F00085FFEDCFCE010E943E01E7CFDF91CF9188
:100300000895EF92FF920F931F93CF93DF93EC0129
:1003100081E0888F9B8D8C8D981305C0E889F989C1
:10032000808185FD24C0F62E0B8D10E00F5F1F4FDE
:100330000F731127E02E8C8DE8120CC00FB607FC4E
:10034000FACFE889F989808185FFF5CFCE010E9437
:100350003E01F1CF8B8DFE01E80FF11DE35AFF4FF7
:10036000F0820B8FEA89FB898081806207C0EE8969
:10037000FF896083E889F98980818064808381E0D6
:1003800090E0DF91CF911F910F91FF90EF90089532
:10039000CF92DF92EF92FF921F93CF93DF93EC0106
:1003A0006A017B01122FE889F98982E08083411577
:1003B000514E61057105B1F060E079E08DE390E0A8
:1003C000A70196010E94C704DA01C9010197A1099A
:1003D000B109B695A79597958795AC01411580E130
:1003E0005807A8F0E889F989108260E874E88EE17E
:1003F00090E0A70196010E94C704BA01A9014150EB
:100400005109610971097695679557954795EC856E
:10041000FD855083EE85FF854083188EEC89FD892C
:100420001083EA89FB89808180618083EA89FB8966
:10043000808188608083EA89FB89808180688083ED
:10044000EA89FB8980818F7D8083DF91CF911F9125
:10045000FF90EF90DF90CF9008951F920F920FB60C
:100460000F9211242F938F939F93EF93FF93E0911B
:100470005401F09155018081E0915A01F0915B01A6
:1004800082FD12C0908180915D018F5F8F732091FA
:100490005E01821751F0E0915D01F0E0EC5BFE4FF0
:1004A000958F80935D0101C08081FF91EF919F91B5
:1004B0008F912F910F900FBE0F901F9018951F9244
:1004C0000F920FB60F9211242F933F934F935F9388
:1004D0006F937F938F939F93AF93BF93EF93FF930C
:1004E00084E491E00E943E01FF91EF91BF91AF91B2
:1004F0009F918F917F916F915F914F913F912F913C
:100500000F900FBE0F901F90189584E491E00E9409
:10051000020121E0892B09F420E0822F0895E4E410
:10052000F1E01382128288EE93E0A0E0B0E08483D1
:100530009583A683B78388E291E09183808385ECDD
:1005400090E09587848784EC90E09787868780EC9D
:1005500090E0918B808B81EC90E0938B828B82EC8E
:1005600090E0958B848B86EC90E0978B868B118E38
:10057000128E138E148E089508950E94CD030E944A
:10058000BC020E94AE00C0E3D1E00E94CB002097E5
:10059000E1F30E943001F9CFCF92DF92EF92FF9208
:1005A0000F931F93CF93DF936C017A018B01C0E00F
:1005B000D0E0CE15DF0589F0D8016D918D01D6010F
:1005C000ED91FC910190F081E02DC6010995892BF8
:1005D00011F47E0102C02196ECCFC701DF91CF91CB
:1005E0001F910F91FF90EF90DF90CF9008956115CC
:1005F000710579F0FB0101900020E9F73197AF0117
:10060000461B570BDC01ED91FC910280F381E02D3C
:10061000099480E090E0089564E371E00C94F7029F
:100620000F931F93CF93DF93EC010E94F7028C018D
:10063000CE010E940C03800F911FDF91CF911F917B
:100640000F9108951F920F920FB60F9211242F93BE
:100650003F938F939F93AF93BF938091E2019091CB
:10066000E301A091E401B091E5013091E10123E0C3
:10067000230F2D3720F40196A11DB11D05C026E8DA
:10068000230F0296A11DB11D2093E1018093E20189
:100690009093E301A093E401B093E5018091E6011A
:1006A0009091E701A091E801B091E9010196A11DA7
:1006B000B11D8093E6019093E701A093E801B09308
:1006C000E901BF91AF919F918F913F912F910F9031
:1006D0000FBE0F901F9018953FB7F8948091E601D8
:1006E0009091E701A091E801B091E90126B5A89B9E
:1006F00005C02F3F19F00196A11DB11D3FBFBA2FB4
:10070000A92F982F8827820F911DA11DB11DBC0113
:10071000CD0142E0660F771F881F991F4A95D1F7D8
:1007200008958F929F92AF92BF92CF92DF92EF92F5
:10073000FF926B017C010E946C034B015C01C114B0
:10074000D104E104F10401F10E94C6040E946C038B
:10075000DC01CB0188199909AA09BB09883E93409D
:10076000A105B10560F321E0C21AD108E108F10842
:1007700088EE880E83E0981EA11CB11CC114D10420
:10078000E104F10419F7DBCFFF90EF90DF90CF90F9
:10079000BF90AF909F908F900895789484B58260B9
:1007A00084BD84B5816084BD85B5826085BD85B515
:1007B000816085BDEEE6F0E0808181608083E1E8C4
:1007C000F0E01082808182608083808181608083FC
:1007D000E0E8F0E0808181608083E1EBF0E08081FF
:1007E00084608083E0EBF0E0808181608083EAE7D1
:1007F000F0E080818460808380818260808380815A
:10080000816080838081806880831092C100089518
:10081000833081F028F4813099F08230A1F008957E
:100820008730A9F08830B9F08430D1F4809180000D
:100830008F7D03C0809180008F7780938000089522
:1008400084B58F7702C084B58F7D84BD0895809173
:10085000B0008F7703C08091B0008F7D8093B0008F
:100860000895CF93DF9390E0FC01E458FF4F24916B
:10087000FC01E057FF4F8491882361F190E0880FDD
:10088000991FFC01E854FF4FC591D491FC01E2553A
:10089000FF4FA591B491611109C09FB7F894888169
:1008A000209582238883EC912E230BC0623061F463
:1008B0009FB7F8943881822F809583238883EC91A9
:1008C0002E2B2C939FBF06C08FB7F894E8812E2B58
:1008D00028838FBFDF91CF9108951F93CF93DF932C
:1008E000282F30E0F901E859FF4F8491F901E458CD
:1008F000FF4FD491F901E057FF4FC491CC23C9F0C9
:10090000162F81110E940804EC2FF0E0EE0FFF1F5C
:10091000E255FF4FA591B4918FB7F894111105C01E
:100920009C91ED2FE095E92302C0EC91ED2BEC9327
:100930008FBFDF91CF911F910895CF93DF93282F21
:1009400030E0F901E859FF4F8491F901E458FF4F75
:10095000D491F901E057FF4FC491CC2391F081115C
:100960000E940804EC2FF0E0EE0FFF1FEC55FF4F44
:10097000A591B491EC91ED2381E090E021F480E029
:1009800002C080E090E0DF91CF9108950895A1E248
:100990001A2EAA1BBB1BFD010DC0AA1FBB1FEE1FF9
:1009A000FF1FA217B307E407F50720F0A21BB30B44
:1009B000E40BF50B661F771F881F991F1A9469F7C0
:1009C00060957095809590959B01AC01BD01CF011C
:1009D0000895EE0FFF1F0590F491E02D0994F8940F
:0209E000FFCF47
:1009E2000D000C004D6F74696F6E20646574656351
:1009F20074656421004D6F74696F6E206162736566
:100A02006E742100000000008101CC0202011C0171
:100A12000E015F010D0A006E616E00696E66006F65
:040A220076660000F4
:00000001FF
