:100000000C945D000C9485000C9485000C94850084
:100010000C9485000C9485000C9485000C9485004C
:100020000C9485000C9485000C9485000C9485003C
:100030000C9485000C9485000C9485000C9485002C
:100040000C94B9030C9485000C9423020C94550273
:100050000C9485000C9485000C9485000C9485000C
:100060000C9485000C94850000000008000201003B
:100070000003040700000000000000000102040863
:100080001020408001020408102001020408102002
:10009000040404040404040402020202020203032E
:1000A0000303030300000000250028002B000000CC
:1000B0000000240027002A00850211241FBECFEF74
:1000C000D8E0DEBFCDBF11E0A0E0B1E0E8EFFAE09C
:1000D00002C005900D92AA34B107D9F721E0AAE435
:1000E000B1E001C01D92A03FB207E1F710E0CDE5FD
:1000F000D0E004C02197FE010E947405CC35D107E1
:10010000C9F70E94B3020C947A050C940000CF93B7
:10011000DF9300D000D000D0CDB7DEB79A838983BB
:100120004B835C836D837E838B819C81AD81BE819B
:10013000E981FA8126E0AC01BD01CF010E94BE0138
:1001400026960FB6F894DEBF0FBECDBFDF91CF91DC
:100150000895CF93DF93CDB7DEB761E08DE00E94C5
:10016000E50460E08EE00E94E50440E855E260E0CE
:1001700070E08AE491E00E948700DF91CF910895BA
:10018000CF93DF9300D0CDB7DEB78EE00E949F04FF
:100190009A83898361E071E08AE491E00E9402031E
:1001A00089819A814AE050E0BC018AE491E00E9492
:1001B000A20364E670E080E090E00E942804898158
:1001C0009A81893592402CF061E08DE00E942105F2
:1001D00004C060E08DE00E94210564E170E080E0F1
:1001E00090E00E9428040F900F90DF91CF91089526
:1001F000FC01918D228D892F90E0805C9F4F821BA6
:1002000091098F7399270895FC01918D828D98171C
:1002100031F0828DE80FF11D858D90E008958FEF0C
:100220009FEF0895FC01918D828D981761F0828D6A
:10023000DF01A80FB11D5D968C91928D9F5F9F731A
:10024000928F90E008958FEF9FEF08958BE792E0F3
:10025000892B49F080E090E0892B29F00E947B02F5
:1002600081110C9400000895FC01848DDF01A80F1A
:10027000B11DA35ABF4F2C91848D90E001968F73CE
:100280009927848FA689B7892C93A089B1898C91ED
:1002900080648C93938D848D981306C00288F389B3
:1002A000E02D80818F7D80830895CF93DF93EC01D3
:1002B000888D8823C9F0EA89FB89808185FD05C086
:1002C000A889B9898C9186FD0FC00FB607FCF5CFC0
:1002D000808185FFF2CFA889B9898C9185FFEDCF08
:1002E000CE010E943401E7CFDF91CF910895EF92C4
:1002F000FF920F931F93CF93DF93EC0181E0888FE0
:100300009B8D8C8D981305C0E889F989808185FDC6
:1003100024C0F62E0B8D10E00F5F1F4F0F731127B7
:10032000E02E8C8DE8120CC00FB607FCFACFE889DE
:10033000F989808185FFF5CFCE010E943401F1CF8C
:100340008B8DFE01E80FF11DE35AFF4FF0820B8FFA
:10035000EA89FB898081806207C0EE89FF8960831A
:10036000E889F98980818064808381E090E0DF9171
:10037000CF911F910F91FF90EF900895CF92DF9250
:10038000EF92FF921F93CF93DF93EC016A017B0101
:10039000122FE889F98982E080834115514E610569
:1003A0007105B1F060E079E08DE390E0A70196017E
:1003B0000E945205DA01C9010197A109B109B69558
:1003C000A79597958795AC01411580E15807A8F04E
:1003D000E889F989108260E874E88EE190E0A7016D
:1003E00096010E945205BA01A901415051096109C3
:1003F00071097695679557954795EC85FD855083EE
:10040000EE85FF854083188EEC89FD891083EA898B
:10041000FB89808180618083EA89FB898081886093
:100420008083EA89FB89808180688083EA89FB89EF
:1004300080818F7D8083DF91CF911F91FF90EF901E
:10044000DF90CF9008951F920F920FB60F92112454
:100450002F938F939F93EF93FF93E0915A01F09125
:100460005B018081E0916001F091610182FD12C029
:100470009081809163018F5F8F7320916401821757
:1004800051F0E0916301F0E0E65BFE4F958F8093C1
:10049000630101C08081FF91EF919F918F912F9116
:1004A0000F900FBE0F901F9018951F920F920FB6CE
:1004B0000F9211242F933F934F935F936F937F93EA
:1004C0008F939F93AF93BF93EF93FF938AE491E051
:1004D0000E943401FF91EF91BF91AF919F918F9155
:1004E0007F916F915F914F913F912F910F900FBE30
:1004F0000F901F9018958AE491E00E94F80021E087
:10050000892B09F420E0822F0895EAE4F1E01382B8
:10051000128288EE93E0A0E0B0E084839583A68306
:10052000B7838EE291E09183808385EC90E095879C
:10053000848784EC90E09787868780EC90E0918BAD
:10054000808B81EC90E0938B828B82EC90E0958B9A
:10055000848B86EC90E0978B868B118E128E138E97
:10056000148E089508950E9464040E94B2020E94AD
:10057000A900C6E2D1E00E94C0002097E1F30E94EA
:100580002601F9CFCF92DF92EF92FF920F931F9344
:10059000CF93DF936C017A018B01C0E0D0E0CE15E0
:1005A000DF0589F0D8016D918D01D601ED91FC91A7
:1005B0000190F081E02DC6010995892B11F47E018F
:1005C00002C02196ECCFC701DF91CF911F910F910F
:1005D000FF90EF90DF90CF9008956115710579F04D
:1005E000FB0101900020E9F73197AF01461B570B43
:1005F000DC01ED91FC910280F381E02D099480E013
:1006000090E008950C94ED02DC01ED91FC910190D5
:10061000F081E02D09946AE371E00C94ED024F92B1
:100620005F926F927F92EF92FF920F931F93CF93FF
:10063000DF93CDB7DEB7A1970FB6F894DEBF0FBE3C
:10064000CDBF7C01FA01CB0119A2223008F42AE0C7
:100650008E010F5D1F4F422E512C612C712CBF015A
:10066000A30192010E945205F901CA01015011092A
:100670006A3014F4605D01C0695CD8016C93232B6F
:10068000242B252B61F7B801C7010E94ED02A1962A
:100690000FB6F894DEBF0FBECDBFDF91CF911F9193
:1006A0000F91FF90EF907F906F905F904F90089523
:1006B000CF92DF92EF92FF920F931F93CF93DF932E
:1006C000EC016A017B012115310579F4E881F9819A
:1006D0000190F081E02D642FDF91CF911F910F9158
:1006E000FF90EF90DF90CF9009942A303105E9F424
:1006F00077FF1AC06DE20E9404038C01442755273E
:10070000BA014C195D096E097F092AE0CE010E94E9
:100710000F03800F911FDF91CF911F910F91FF90D9
:10072000EF90DF90CF9008952AE0B701A601CE01A7
:10073000DF91CF911F910F91FF90EF90DF90CF90BD
:100740000C940F030F931F93CF93DF93EC019A0147
:10075000AB01770F660B770B0E9458038C01CE011B
:100760000E940B03800F911FDF91CF911F910F917A
:1007700008951F920F920FB60F9211242F933F935B
:100780008F939F93AF93BF938091E8019091E9017C
:10079000A091EA01B091EB013091E70123E0230F32
:1007A0002D3720F40196A11DB11D05C026E8230FA9
:1007B0000296A11DB11D2093E7018093E80190935B
:1007C000E901A093EA01B093EB018091EC019091D3
:1007D000ED01A091EE01B091EF010196A11DB11DB7
:1007E0008093EC019093ED01A093EE01B093EF01A3
:1007F000BF91AF919F918F913F912F910F900FBE1D
:100800000F901F9018953FB7F8948091EC0190914C
:10081000ED01A091EE01B091EF0126B5A89B05C0B6
:100820002F3F19F00196A11DB11D3FBFBA2FA92F6F
:10083000982F8827820F911DA11DB11DBC01CD01EC
:1008400042E0660F771F881F991F4A95D1F70895D8
:100850008F929F92AF92BF92CF92DF92EF92FF92D0
:100860006B017C010E9403044B015C01C114D104A3
:10087000E104F10401F10E9451050E940304DC012E
:10088000CB0188199909AA09BB09883E9340A105A3
:10089000B10560F321E0C21AD108E108F10888EE41
:1008A000880E83E0981EA11CB11CC114D104E10480
:1008B000F10419F7DBCFFF90EF90DF90CF90BF905E
:1008C000AF909F908F900895789484B5826084BD96
:1008D00084B5816084BD85B5826085BD85B5816044
:1008E00085BDEEE6F0E0808181608083E1E8F0E0A4
:1008F0001082808182608083808181608083E0E8D3
:10090000F0E0808181608083E1EBF0E080818460B1
:100910008083E0EBF0E0808181608083EAE7F0E0B3
:100920008081846080838081826080838081816017
:1009300080838081806880831092C10008958E300A
:1009400008F08E5087702091000190E4299F90015B
:100950001124822B80937C0080917A0080648093A4
:100960007A0080917A0086FDFCCF809178002091FA
:10097000790090E0922B0895833081F028F4813043
:1009800099F08230A1F008958730A9F08830B9F04D
:100990008430D1F4809180008F7D03C080918000ED
:1009A0008F7780938000089584B58F7702C084B5D7
:1009B0008F7D84BD08958091B0008F7703C08091B2
:1009C000B0008F7D8093B0000895CF93DF9390E0C7
:1009D000FC01E458FF4F2491FC01E057FF4F849144
:1009E000882361F190E0880F991FFC01E255FF4FC9
:1009F000C591D491FC01EC55FF4FA591B4916111C3
:100A000009C09FB7F8948881209582238883EC9150
:100A10002E230BC0623061F49FB7F8943881822F87
:100A2000809583238883EC912E2B2C939FBF06C047
:100A30008FB7F894E8812E2B28838FBFDF91CF9159
:100A400008951F93CF93DF93282F30E0F901E859E1
:100A5000FF4F8491F901E458FF4FD491F901E05719
:100A6000FF4FC491CC23C9F0162F81110E94BC0402
:100A7000EC2FF0E0EE0FFF1FEC55FF4FA591B49166
:100A80008FB7F894111105C09C91ED2FE095E923E3
:100A900002C0EC91ED2BEC938FBFDF91CF911F91B2
:100AA00008950895A1E21A2EAA1BBB1BFD010DC0DB
:100AB000AA1FBB1FEE1FFF1FA217B307E407F5070E
:100AC00020F0A21BB30BE40BF50B661F771F881FEA
:100AD000991F1A9469F760957095809590959B0180
:100AE000AC01BD01CF010895EE0FFF1F0590F491F9
:080AF000E02D0994F894FFCFFA
:100AF80001416E616C6F6769632056616C75652092
:100B0800636F6D696E672066726F6D20746865200B
:100B180073656E736F72203A200000000000770141
:100B2800C202F8001201040155010D0A006E616E3F
:0A0B380000696E66006F766600002B
:00000001FF
